:020000040800F2
:1000000028070020F1010008F9010008FB010008A1
:10001000FD010008FF0100080102000800000000C7
:1000200000000000000000000000000003020008C3
:10003000050200080000000007020008090200088D
:100040000B0200080B0200080B0200080B0200085C
:100050000B0200080B0200080B0200080B0200084C
:100060000B0200080B0200080B0200080B0200083C
:100070000B0200080B0200080B0200080B0200082C
:100080000B0200080B0200080B0200080B0200081C
:100090000B0200080B0200080B0200080B0200080C
:1000A0000B0200080B0200080B0200080B020008FC
:1000B0000B0200080B0200080B0200080B020008EC
:1000C0000B0200080B0200080B0200080B020008DC
:1000D0000B020008D10200080B0200080B02000806
:1000E0000B0200080B0200080B02000800000000D1
:1000F0000000000000000000000000000000000000
:1001000000000000000000000B0200080B020008C5
:100110000B0200080B0200080B0200080B0200088B
:100120000B0200080B0200080B0200080B0200087B
:100130000B0200080B0200080B0200080B0200086B
:100140000B0200080B0200080B0200080B0200085B
:1001500000F002F800F03CF80AA090E8000C82449D
:100160008344AAF10107DA4501D100F031F8AFF27A
:10017000090EBAE80F0013F0010F18BFFB1A43F085
:1001800001031847C8110000E8110000103A24BF0D
:1001900078C878C1FAD8520724BF30C830C144BFEC
:1001A00004680C607047000000230024002500262E
:1001B000103A28BF78C1FBD8520728BF30C148BFCA
:1001C0000B6070471FB501F0BAF81FBD10B510BD28
:1001D00001F07BF81146FFF7F5FF00F029F801F078
:1001E00099F803B4FFF7F2FF03BC01F0A1F8000097
:1001F0000948804709480047FEE7FEE7FEE7FEE7BB
:10020000FEE7FEE7FEE7FEE7FEE7FEE704480549F6
:10021000054A064B704700005911000851010008BB
:1002200028010020280700202803002028030020A0
:1002300086B00121880300F0D8FC0121052000F0E0
:10024000D4FC25208DF8140000208DF815008DF8C1
:10025000160001208DF8170005A800F096F84FF45D
:10026000C060ADF8000018208DF8030003208DF861
:1002700002006946144800F051F94FF4E130019052
:100280000020ADF80800ADF80A00ADF80C00ADF89C
:1002900010000C20ADF80E0001A90C4800F04DFD37
:1002A000012240F22551094800F0DFFD01210748F5
:1002B00000F0CFFD4121054800F03BFE42210348FC
:1002C00000F037FE00BFFEE70008014000380140A3
:1002D00010B540F22551234800F0AFFE214800F050
:1002E0002CFE21490880084600882049204A1288AF
:1002F00021F812001E480088401C80B21C4908806A
:10030000082801D1002008801A480088401C80B2CB
:1003100018490880082804D10020088001201649C7
:10032000087040F225510F4800F0B1FE10BD00BF2B
:10033000104909880029FBD00C49104A128831F86D
:1003400012000E490988491C89B20C4A11800829FB
:1003500001D10021118007490988491E054A1180F1
:1003600070470000003801406C000020B8000020F9
:10037000660000206A000020640000206800002061
:1003800031490143314A1160704770B500210023A3
:100390000F22C4780CB32D4C246804F4E064C4F537
:1003A000E064210AC1F10403CA40447804FA03F16D
:1003B0008478144021430901254C0678A15504781E
:1003C00004F01F050124AC4005786D114FF0E026C4
:1003D00006EB8505C5F8004109E0047804F01F0527
:1003E0000124AC401B4D0678761145F8264070BDBF
:1003F000194A0A400243154B1B1F1A60704739B156
:10040000124A121D12680243104B1B1D1A6006E0AF
:100410000E4A121D126882430C4B1B1D1A60704756
:10042000042808D14FF0E021096941F004014FF0A0
:10043000E022116107E04FF0E021096921F0040199
:100440004FF0E022116170470000FA050CED00E06A
:1004500000E400E080E100E080FFFF1F10B50446EB
:10046000CA48844208D10121042000F0E5FB0021A4
:10047000042000F0E1FB46E0C548844208D1012198
:10048000082000F0D9FB0021082000F0D5FB3AE05D
:10049000C048844208D10121102000F0CDFB00218A
:1004A000102000F0C9FB2EE0BB48844208D1012196
:1004B000202000F0C1FB0021202000F0BDFB22E045
:1004C000B648844208D10121402000F0B5FB00214C
:1004D000402000F0B1FB16E0B148844208D1012170
:1004E000802000F0A9FB0021802000F0A5FB0AE09D
:1004F000AC48844207D10121801500F09DFB00210A
:10050000A01500F099FB10BD10B50121084600F0C0
:1005100093FB0021012000F08FFB10BD2DE9F0417D
:10052000024600250026002000230024002791F821
:1005300003C00CF00F0591F803C01CF0100F03D09E
:1005400091F802C04CEA0505B1F800C01CF0FF0F9D
:1005500031D0146800202BE04FF0010C0CFA00F3AE
:10056000B1F800C00CEA03069E4220D183004FF090
:100570000F0C0CFA03F7BC4305FA03FC4CEA040425
:1005800091F803C0BCF1280F06D14FF0010C0CFA12
:1005900000FCC2F814C00AE091F803C0BCF1480F97
:1005A00005D14FF0010C0CFA00FCC2F810C0401C41
:1005B0000828D1D31460B1F800C0BCF1FF0F34DDBE
:1005C000546800202EE000F1080C4FF0010808FAF2
:1005D0000CF3B1F800C00CEA03069E4221D183005F
:1005E0004FF00F0C0CFA03F7BC4305FA03FC4CEA7E
:1005F000040491F803C0BCF1280F05D100F1080CE8
:1006000008FA0CF8C2F8148091F803C0BCF1480F46
:1006100007D100F1080C4FF0010808FA0CF8C2F8F5
:100620001080401C0828CED35460BDE8F0814FF6FE
:10063000FF710180022181700421C1707047024660
:10064000002093680B4201D0012000E00020704799
:100650000146886880B2704702460020D3680B428A
:1006600001D0012000E0002070470146C86880B238
:10067000704701617047416170470AB1016100E054
:1006800041617047C16070474FF480320A43826114
:100690008161826182698269704702460020424B13
:1006A00018684FF68073184040EA021008433E4B2A
:1006B000186070473D49C8617047F0B50A4600238D
:1006C00000240021002500F00046B6F1004F02D1C1
:1006D000354EF16901E0344E7168C0F3034583B2D1
:1006E00000F44016B6F5401F08D121F070612E4E7F
:1006F000766826F070662C4F7E6012E000F480165B
:10070000B6F5801F06D1032606FA05F4A14341F091
:10071000706106E0460D360103FA06F6B14341F07A
:10072000706122B1460D360103FA06F6314300F03E
:100730000046B6F1004F02D11B4EF16101E01A4EA6
:100740007160F0BD30B500228B071C0F0F2303FA38
:1007500004F2154B08338C1053F824309343124C99
:1007600008348D1044F8253023468C1053F824307B
:100770008C07240F00FA04F423430B4C08348D102B
:1007800044F8253030BD0A49086070470008014030
:10079000000C01400010014000140140001801400D
:1007A000001C0140002001400000014000002042E8
:1007B000DC002042F848006840F00100F64908607B
:1007C00008464068F5490840F34948600846006813
:1007D000F3490840F04908600846006820F480208A
:1007E00008600846406820F4FE004860084600683B
:1007F00020F0A05008604FF47F0088600020C8629D
:100800007047E549096821F48031E34A11601146D7
:10081000096821F480211160B0F5803F03D0B0F564
:10082000802F0ED106E0DC49096841F48031DA4AB4
:10083000116007E0D849096841F4A021D64A116047
:1008400000E000BF00BF704710B501460022002342
:1008500000204A11012A02D1CF4C236806E0022A67
:1008600002D1CD4C236A01E0CB4C636A01F01F0238
:10087000012494401C4201D0012000E0002010BD62
:1008800070B500240025002600BF3120FFF7DCFFF3
:100890000646641CB4F5A06F01D0002EF5D03120BF
:1008A000FFF7D2FF08B1012500E00025284670BD02
:1008B00001460020B84A106820F0F80040EAC10064
:1008C00010607047B7490860704702460020B24B7D
:1008D000586820F4741042EA01031843AE4B586084
:1008E0007047B0490866704702460020AA4BD86A94
:1008F000AD4B184042EA01031843A74BD86270473A
:1009000001460020A44AD06A20F0F0000843D062DB
:10091000704701460020A04AD06A20F47060084366
:10092000D06270479F4988667047014600209A4A06
:10093000D06A20F470400843D06270479949086734
:10094000704701460020944A506820F00300084395
:10095000506070479048406800F00C0070470146B6
:1009600000208D4A506820F0F00008435060704726
:1009700001460020884A506820F4E0600843506037
:10098000704701460020844A506820F4605040EAD5
:10099000C1005060704729B17F4A527A02437E4BB2
:1009A0005A7206E07C4A527AC343DBB21A407A4B51
:1009B0005A7270477D490860704701460020764AA8
:1009C000506820F440400843506070477849086000
:1009D00070477749091D086070470021754A1170FA
:1009E0006D4A82F82010012802D0042808D103E0C3
:1009F0000121704A117004E005216E4A117000E077
:100A000000BF00BF70476C49086070476249096ABF
:100A10000143614A11627047674944390860704771
:100A20002DE9F041002100220025002300260024AA
:100A300000278C46DFF86081D8F8048008F00C01AC
:100A400021B1042907D0082959D109E0DFF86C81C8
:100A5000C0F8008058E0DFF86881C0F8008053E0FB
:100A6000DFF83481D8F8048008F47012DFF82881A8
:100A7000D8F8048008F48035920C0D2A01D0921C1D
:100A800000E0062235B9DFF83C8102FB08F8C0F827
:100A9000008033E0DFF80081D8F82C8008F480363D
:100AA000DFF8F480D8F82C8008F00F0808F1010472
:100AB00046B9DFF80C81B8FBF4F808FB02F8C0F87F
:100AC00000801BE0DFF8D080D8F82C80C8F3031832
:100AD00008F10107DFF8C080D8F82C80C8F303289C
:100AE00008F1020CDFF8D880B8FBF7F808FB0CF827
:100AF000B8FBF4F808FB02F8C0F8008004E0DFF867
:100B0000BC80C0F8008000BF00BFDFF88C80D8F840
:100B1000048008F0F0010909DFF8AC8018F8013012
:100B2000D0F8008028FA03F8C0F80480DFF8688065
:100B3000D8F8048008F4E061090ADFF88C8018F81E
:100B40000130D0F8048028FA03F8C0F80880DFF8F4
:100B50004880D8F8048008F46051C90ADFF868803A
:100B600018F80130D0F8048028FA03F8C0F80C8097
:100B7000DFF82480D8F8048008F44041890BDFF8BE
:100B80004C8018F80130D0F80C80B8FBF3F8C0F8AE
:100B90001080BDE8F0810000001002400000FFF06E
:100BA000FFFFF6FE00004242F0FFFEFFD800424287
:100BB000C4054242201002408004424200127A00E2
:100BC00040787D0100093D006E0000207E0000207D
:100BD00029B1354A52690243334B5A6104E0324A23
:100BE00052698243304B5A61704729B12E4A92694B
:100BF00002432D4B9A6104E02B4A926982432A4BAF
:100C00009A61704729B1284AD2690243264BDA61BA
:100C100004E0254AD2698243234BDA61704729B147
:100C2000214A926A0243204B9A6204E01E4A926A69
:100C300082431D4B9A62704729B11B4AD268024316
:100C4000194BDA6004E0184AD2688243164BDA6026
:100C5000704729B1144A12690243134B1A6104E028
:100C6000114A12698243104B1A6170470F4908609C
:100C700070470F49C86470470B49C87170470A48EC
:100C8000406A40F080700849486270470146002081
:100C9000054A92680A4201D0012000E00020704716
:100CA000014988727047000000100240400442422F
:100CB0000000424210B50446FC48844209D101219B
:100CC0008803FFF7B9FF00214FF48040FFF7B4FF1E
:100CD00032E0F748844209D101214804FFF7B9FF07
:100CE00000214FF40030FFF7B4FF25E0F1488442C3
:100CF00009D101218804FFF7ACFF00214FF48020C7
:100D0000FFF7A7FF18E0EC48844209D10121C8048D
:100D1000FFF79FFF00214FF40020FFF79AFF0BE041
:100D2000E648844208D101210805FFF792FF00211F
:100D30004FF48010FFF78DFF10BD2DE9F04786B00E
:100D400005460E460024A24600BFA1460027B089F2
:100D500000B100BF2F462C8A4CF6FF700440F0888B
:100D600004432C82AC894EF6F3100440B0883189DC
:100D70000843718908430443AC81AC8A4FF6FF40B5
:100D80000440B0890443AC8201A8FFF749FEC7487C
:100D9000874202D1DDF810A001E0DDF80CA0A8899F
:100DA00010F4004F08D00AEBCA0000EB0A103168BB
:100DB0004900B0FBF1F807E00AEBCA0000EB0A10AB
:100DC00031688900B0FBF1F86420B8FBF0F0040151
:100DD0002009642101FB1089A88910F4004F08D074
:100DE000322000EBC900B0FBF1F000F00700044333
:100DF00008E0322000EB09106421B0FBF1F000F0B4
:100E00000F0004432C8106B0BDE8F0874FF4165163
:100E1000016000218180C18001810C21418100217C
:100E20008181704710B502460020108A4FF2FF03FF
:100E300018400B884C8823438C882343CC88234359
:100E40001843108210BD0021018041808180C18043
:100E5000704721B1828942F40052828104E0828984
:100E60004DF6FF731A4082817047F0B503460024A7
:100E7000002600250020A1F510676A3F00D100BFC1
:100E80001846C1F3421401F01F06012707FA06F5C0
:100E9000012C01D10C3004E0022C01D1103000E013
:100EA00014301AB107682F43076002E00768AF43A8
:100EB0000760F0BD10B51AB1838A0B43838204E04A
:100EC000838ACC43A4B22340838210BD028A4FF6AA
:100ED000F0731A400282028A0A43028270478289B2
:100EE0004FF2FF731A40828182890A4382817047E0
:100EF00021B1828942F00202828104E082894FF6A8
:100F0000FD731A4082817047028A4FF6DF731A40E0
:100F10000282028A0A430282704721B1028A42F4A5
:100F20008042028204E0028A4BF6FF731A4002827A
:100F30007047C1F308028280704701468888C0F379
:100F400008007047818941F0010181817047028B5F
:100F5000D2B20283028B42EA012202837047028BE3
:100F600002F47F420283028B0A430283704721B15D
:100F7000828A42F02002828204E0828A4FF6DF7386
:100F80001A408282704721B1828A42F01002828226
:100F900004E0828A4FF6EF731A408282704721B1D3
:100FA000828A42F00802828204E0828A4FF6F77356
:100FB0001A408282704721B1828942F400428281C4
:100FC00003E08289C2F30E028281704721B1828AD6
:100FD00042F40062828204E0828A4FF2FF731A4078
:100FE00082827047828A4FF6FB731A408282828A1D
:100FF0000A438282704721B1828A42F002028282D1
:1010000004E0828A4FF6FD731A40828270470246DE
:101010000020B1F5007F00D100BF13880B4201D042
:10102000012000E00020704701F40072B2F5007F5B
:1010300000D100BFCA430280704770B50246002449
:10104000002300250020A1F510666A3E00D100BFF4
:10105000C1F3421501F01F03012606FA03F3012D27
:1010600002D19689334006E0022D02D1168A334020
:1010700001E0968A33400C12012606FA04F4168821
:10108000344013B10CB1012000E0002070BD10B558
:1010900000220023A1F510646A3C00D100BF0A12AF
:1010A00001249440A3B2DC43048010BD0038014009
:1010B0000044004000480040004C00400050004008
:1010C00000210020754A126842F48032734B1A6086
:1010D00000BF724A126802F40030491C10B9B1F521
:1010E000A06FF6D16D4A126812F4003F01D00120C2
:1010F00000E0002001282AD1694A126842F010025B
:10110000674B1A601A46126822F003021A601A46E8
:10111000126842F001021A60604A52685F4B5A60DE
:101120001A4652685A601A4652685A601A465268FD
:1011300022F003025A601A46526842F001025A60D5
:1011400000BF564A526802F00C02042AF9D17047D7
:1011500010B5FFF7B5FF10BD10B55048006840F05E
:1011600001004E490860084640684E4908404B4916
:101170004860084600684C490840484908600846ED
:10118000006820F4802008600846406820F4FE00D3
:1011900048600846006820F0A05008604FF47F00C7
:1011A00088600020C862FFF7D3FF4FF000603F491E
:1011B000086010BDF0B500210020002300240022AB
:1011C00000250026354F7F6807F00C0121B1042966
:1011D00008D008294BD10BE0354FDFF8D8C0CCF848
:1011E00000704AE0344FDFF8CCC0CCF8007044E027
:1011F0002A4F7F6807F47010284F7F6807F4803308
:10120000800C0D2801D0801C00E0062033B92B4F44
:101210004743DFF8A0C0CCF8007027E01F4FFF6AFB
:1012200007F480341D4FFF6A07F00F077A1C44B99A
:10123000214FB7FBF2F74743DFF878C0CCF80070D6
:1012400014E0164FFF6AC7F303177D1C134FFF6AA4
:10125000C7F30327BE1C184FB7FBF5F77743B7FB5F
:10126000F2F74743DFF84CC0CCF8007005E0104FB0
:10127000DFF840C0CCF8007000BF00BF074F7F68A8
:10128000C7F30317DFF838C01CF80710094F3F6891
:10129000CF40DFF820C0CCF80070F0BD0010024055
:1012A000002002400000FFF0FFFFF6FE08ED00E026
:1012B00000127A008400002040787D0100093D0082
:1012C00088000020704770477047754600F028F886
:1012D000AE4605006946534620F00700854618B023
:1012E00020B5FEF793FFBDE820404FF000064FF019
:1012F00000074FF000084FF0000B21F00701AC464B
:10130000ACE8C009ACE8C009ACE8C009ACE8C00969
:101310008D4670470446AFF300802046FEF761FF1C
:1013200000487047C800002000487047CC000020EB
:1013300001491820ABBEFEE726000200704710B539
:10134000FFF7F2FF4FF00001016010BD6C130008C1
:1013500000000020980000008C0100080414000820
:101360009800002090060000A80100080A0D5553BF
:101370004152542048797065727465726D696E616E
:101380006C20496E74657272757074732045786153
:101390006D706C653A2055534152542D48797065F3
:1013A000727465726D696E616C20636F6D6D756EC0
:1013B00069636174696F6E207573696E6720496E29
:1013C000746572727570740A0D005D200000000073
:1013D000000000000000000000000000000001020A
:1013E00003040102030406070809020406080000BA
:1013F00040787D01000000000000000001020304AD
:0414000006070809CA
:04000005080001519D
:00000001FF
