:020000040800F2
:1000000028070020F1010008F9010008FB010008A1
:10001000FD010008FF0100080102000800000000C7
:1000200000000000000000000000000003020008C3
:10003000050200080000000007020008090200088D
:100040000B0200080B0200080B0200080B0200085C
:100050000B0200080B0200080B0200080B0200084C
:100060000B0200080B0200080B0200080B0200083C
:100070000B0200080B0200080B0200080B0200082C
:100080000B0200080B0200080B0200080B0200081C
:100090000B0200080B0200080B0200080B0200080C
:1000A0000B0200080B0200080B0200080B020008FC
:1000B0000B0200080B0200080B0200080B020008EC
:1000C0000B0200080B0200080B0200080B020008DC
:1000D0000B0200085D0300080B0200080B02000879
:1000E0000B0200080B0200080B02000800000000D1
:1000F0000000000000000000000000000000000000
:1001000000000000000000000B0200080B020008C5
:100110000B0200080B0200080B0200080B0200088B
:100120000B0200080B0200080B0200080B0200087B
:100130000B0200080B0200080B0200080B0200086B
:100140000B0200080B0200080B0200080B0200085B
:1001500000F002F800F03CF80AA090E8000C82449D
:100160008344AAF10107DA4501D100F031F8AFF27A
:10017000090EBAE80F0013F0010F18BFFB1A43F085
:10018000010318471410000034100000103A24BF77
:1001900078C878C1FAD8520724BF30C830C144BFEC
:1001A00004680C607047000000230024002500262E
:1001B000103A28BF78C1FBD8520728BF30C148BFCA
:1001C0000B6070471FB500F0E0FF1FBD10B510BDFC
:1001D00000F0A1FF1146FFF7F5FF00F096F800F0E0
:1001E000BFFF03B4FFF7F2FF03BC00F0C7FF00003E
:1001F0000948804709480047FEE7FEE7FEE7FEE7BB
:10020000FEE7FEE7FEE7FEE7FEE7FEE704480549F6
:10021000054A064B70470000131000085101000802
:1002200028010020280700202803002028030020A0
:1002300070B50446002500BF0BE000BF40213D48DB
:1002400000F08DFE0028F9D0615D3A4800F019FEFB
:100250006D1C605D0028F0D170BD00B587B0012134
:10026000880300F064FC0121052000F060FC4FF4DD
:10027000E06000F0CDF825208DF8180000208DF802
:1002800019008DF81A0001208DF81B0006A800F057
:10029000C4F84FF48060ADF8040004208DF8070026
:1002A00001A9254800F082F94FF40070ADF8040070
:1002B00018208DF8070003208DF8060001A91E48BC
:1002C00000F074F94FF4E13002900020ADF80C001A
:1002D000ADF80E00ADF81000ADF814000C20ADF82C
:1002E000120002A9134800F0D0FC012240F225516F
:1002F000104800F062FD01210E4800F052FD40213F
:100300000C4800F039FE07B000BDFFF7A6FF0BA0B8
:10031000FFF78EFF0DA0FFF78BFF09E000F050F80C
:1003200004462146034800F0ACFD07A0FFF780FF1C
:10033000F4E7000000380140000801405642454201
:1003400020436F2E2C4C74640A0D00005068756FAA
:10035000632053616E670A0D0000000010B540F283
:100360002551244800F011FE48B3224800F08DFDCD
:1003700000F07F0020490880084600881F49204A75
:10038000128821F812001E480088401C80B21C49C7
:100390000880082801D1002008801A480088401CE5
:1003A00080B218490880082804D100200880012064
:1003B0001549087040F225510E4800F010FE10BD9E
:1003C00000BF104909880029FBD00C490F4A128848
:1003D00031F812000D490988491C89B20B4A118075
:1003E000082901D10021118006490988491E054AC2
:1003F00011807047003801406C000020B8000020D8
:10040000660000206A0000206400002068000020D0
:1004100031490143314A1160704770B50021002312
:100420000F22C4780CB32D4C246804F4E064C4F5A6
:10043000E064210AC1F10403CA40447804FA03F1DC
:100440008478144021430901254C0678A15504788D
:1004500004F01F050124AC4005786D114FF0E02633
:1004600006EB8505C5F8004109E0047804F01F0596
:100470000124AC401B4D0678761145F8264070BD2E
:10048000194A0A400243154B1B1F1A60704739B1C5
:10049000124A121D12680243104B1B1D1A6006E01F
:1004A0000E4A121D126882430C4B1B1D1A607047C6
:1004B000042808D14FF0E021096941F004014FF010
:1004C000E022116107E04FF0E021096921F0040109
:1004D0004FF0E022116170470000FA050CED00E0DA
:1004E00000E400E080E100E080FFFF1F10B504465B
:1004F000CA48844208D10121042000F032FB0021C7
:10050000042000F02EFB46E0C548844208D10121BA
:10051000082000F026FB0021082000F022FB3AE032
:10052000C048844208D10121102000F01AFB0021AC
:10053000102000F016FB2EE0BB48844208D10121B8
:10054000202000F00EFB0021202000F00AFB22E01A
:10055000B648844208D10121402000F002FB00216E
:10056000402000F0FEFA16E0B148844208D1012193
:10057000802000F0F6FA0021802000F0F2FA0AE074
:10058000AC48844207D10121801500F0EAFA00212D
:10059000A01500F0E6FA10BD10B50121084600F0E4
:1005A000E0FA0021012000F0DCFA10BD2DE9F04155
:1005B000024600250026002000230024002791F891
:1005C00003C00CF00F0591F803C01CF0100F03D00E
:1005D00091F802C04CEA0505B1F800C01CF0FF0F0D
:1005E00031D0146800202BE04FF0010C0CFA00F31E
:1005F000B1F800C00CEA03069E4220D183004FF000
:100600000F0C0CFA03F7BC4305FA03FC4CEA040494
:1006100091F803C0BCF1280F06D14FF0010C0CFA81
:1006200000FCC2F814C00AE091F803C0BCF1480F06
:1006300005D14FF0010C0CFA00FCC2F810C0401CB0
:100640000828D1D31460B1F800C0BCF1FF0F34DD2D
:10065000546800202EE000F1080C4FF0010808FA61
:100660000CF3B1F800C00CEA03069E4221D18300CE
:100670004FF00F0C0CFA03F7BC4305FA03FC4CEAED
:10068000040491F803C0BCF1280F05D100F1080C57
:1006900008FA0CF8C2F8148091F803C0BCF1480FB6
:1006A00007D100F1080C4FF0010808FA0CF8C2F865
:1006B0001080401C0828CED35460BDE8F0814FF66E
:1006C000FF710180022181700421C17070470246D0
:1006D000002093680B4201D0012000E00020704709
:1006E0000146886880B2704702460020D3680B42FA
:1006F00001D0012000E0002070470146C86880B2A8
:10070000704701617047416170470AB1016100E0C3
:1007100041617047C16070474FF480320A43826183
:100720008161826182698269704702460020424B82
:1007300018684FF68073184040EA021008433E4B99
:10074000186070473D49C8617047F0B50A460023FC
:1007500000240021002500F00046B6F1004F02D130
:10076000354EF16901E0344E7168C0F3034583B240
:1007700000F44016B6F5401F08D121F070612E4EEE
:10078000766826F070662C4F7E6012E000F48016CA
:10079000B6F5801F06D1032606FA05F4A14341F001
:1007A000706106E0460D360103FA06F6B14341F0EA
:1007B000706122B1460D360103FA06F6314300F0AE
:1007C0000046B6F1004F02D11B4EF16101E01A4E16
:1007D0007160F0BD30B500228B071C0F0F2303FAA8
:1007E00004F2154B08338C1053F824309343124C09
:1007F00008348D1044F8253023468C1053F82430EB
:100800008C07240F00FA04F423430B4C08348D109A
:1008100044F8253030BD0A4908607047000801409F
:10082000000C01400010014000140140001801407C
:10083000001C014000200140000001400000204257
:10084000DC002042E348006840F00100E149086014
:1008500008464068E0490840DE49486008460068AC
:10086000DE490840DB4908600846006820F4802023
:1008700008600846406820F4FE0048604FF41F00FE
:1008800088600020C8627047D249096821F480312D
:10089000D04A11601146096821F480211160B0F539
:1008A000803F03D0B0F5802F0ED106E0C94909681A
:1008B00041F48031C74A116007E0C649096841F434
:1008C000A021C44A116000E000BF00BF704710B50E
:1008D00001460022002300204A11012A02D1BD4C0A
:1008E000236806E0022A02D1BA4C236A01E0B94C1F
:1008F000636A01F01F02012494401C4201D00120D0
:1009000000E0002010BD70B500240025002600BFC7
:100910003120FFF7DCFF0646641CB4F5A06F01D060
:10092000002EF5D03120FFF7D2FF08B1012500E0FD
:100930000025284670BD01460020A64A106820F018
:10094000F80040EAC10010607047A5490860704790
:10095000024600209F4B586820F4741042EA0103BD
:1009600018439C4B586070479D4908667047024683
:100970000020984BD86A9B4B184042EA0103184369
:10098000944BD862704701460020924A506820F08C
:1009900003000843506070478E48406800F00C0028
:1009A0007047014600208B4A506820F0F000084351
:1009B0005060704701460020864A506820F4E0608D
:1009C00008435060704701460020824A506820F476
:1009D000605040EAC1005060704729B17D4A527AA8
:1009E00002437C4B5A7206E07A4A527AC343DBB226
:1009F0001A40784B5A7270477B490860704701462D
:100A00000020744A506820F440400843506070470A
:100A10000021764A11706F4A82F82010012802D016
:100A2000042808D103E00121704A117004E0052177
:100A30006E4A117000E000BF00BF70476C4908604B
:100A400070476449096A0143624A11627047684904
:100A500044390860704770B500210023002400224B
:100A600000255C4E766806F00C0121B1042905D002
:100A7000082921D105E05F4E066020E05D4E06604A
:100A80001DE0544E766806F47013524E766806F4F4
:100A90008034022606EB93431CB9574E5E43066032
:100AA00009E04C4EF66A06F00F06751C514EB6FB77
:100AB000F5F65E43066002E04E4E066000BF00BFE2
:100AC000444E766806F0F00109094C4E725C0668E7
:100AD000D64046603F4E766806F4E061090A474E0C
:100AE000725C4668D64086603A4E766806F460517D
:100AF000C90A424E725C4668D640C660354E76687A
:100B000006F44041890B3E4E725CC668B6FBF2F6B5
:100B1000066170BD29B12F4A526902432D4B5A61BB
:100B200004E02C4A526982432A4B5A61704729B12A
:100B3000284A92690243274B9A6104E0254A926948
:100B40008243244B9A61704729B1224AD2690243F9
:100B5000204BDA6104E01F4AD26982431D4BDA61FF
:100B6000704729B11B4AD26802431A4BDA6004E08D
:100B7000184AD2688243174BDA60704729B1154A88
:100B800012690243134B1A6104E0124A126982434C
:100B9000104B1A6170471649403908607047104978
:100BA000C86470470B49C87170470A48406A40F0F2
:100BB000807008494862704701460020054A9268E3
:100BC0000A4201D0012000E00020704701498872EC
:100BD00070470000001002400000FFF8FFFFF6FE23
:100BE00000004242F0FFFEFFD800424220100240C7
:100BF0008004424200127A0000093D006E0000208D
:100C00007E00002010B50446FC48844209D1012131
:100C10008803FFF7A6FF00214FF48040FFF7A1FFF4
:100C200032E0F748844209D101214804FFF7A6FFCA
:100C300000214FF40030FFF7A1FF25E0F148844286
:100C400009D101218804FFF799FF00214FF480208A
:100C5000FFF794FF18E0EC48844209D10121C80451
:100C6000FFF78CFF00214FF40020FFF787FF0BE018
:100C7000E648844208D101210805FFF77FFF0021E3
:100C80004FF48010FFF77AFF10BD2DE9F04786B0D2
:100C900005460E460024A24600BFA1460027B089A3
:100CA00000B100BF2F462C8A4CF6FF700440F0883C
:100CB00004432C82AC894EF6F3100440B08831898D
:100CC0000843718908430443AC81AC8A4FF6FF4066
:100CD0000440B0890443AC8201A8FFF7BCFEC748BA
:100CE000874202D1DDF810A001E0DDF80CA0A88950
:100CF00010F4004F08D00AEBCA0000EB0A1031686C
:100D00004900B0FBF1F807E00AEBCA0000EB0A105B
:100D100031688900B0FBF1F86420B8FBF0F0040101
:100D20002009642101FB1089A88910F4004F08D024
:100D3000322000EBC900B0FBF1F000F007000443E3
:100D400008E0322000EB09106421B0FBF1F000F064
:100D50000F0004432C8106B0BDE8F0874FF4165114
:100D6000016000218180C18001810C21418100212D
:100D70008181704710B502460020108A4FF2FF03B0
:100D800018400B884C8823438C882343CC8823430A
:100D90001843108210BD0021018041808180C180F4
:100DA000704721B1828942F40052828104E0828935
:100DB0004DF6FF731A4082817047F0B50346002458
:100DC000002600250020A1F510676A3F00D100BF72
:100DD0001846C1F3421401F01F06012707FA06F571
:100DE000012C01D10C3004E0022C01D1103000E0C4
:100DF00014301AB107682F43076002E00768AF4359
:100E00000760F0BD10B51AB1838A0B43838204E0FA
:100E1000838ACC43A4B22340838210BD028A4FF65A
:100E2000F0731A400282028A0A4302827047828962
:100E30004FF2FF731A40828182890A438281704790
:100E400021B1828942F00202828104E082894FF658
:100E5000FD731A4082817047028A4FF6DF731A4091
:100E60000282028A0A430282704721B1028A42F456
:100E70008042028204E0028A4BF6FF731A4002822B
:100E80007047C1F308028280704701468888C0F32A
:100E900008007047818941F0010181817047028B10
:100EA000D2B20283028B42EA012202837047028B94
:100EB00002F47F420283028B0A430283704721B10E
:100EC000828A42F02002828204E0828A4FF6DF7337
:100ED0001A408282704721B1828A42F010028282D7
:100EE00004E0828A4FF6EF731A408282704721B184
:100EF000828A42F00802828204E0828A4FF6F77307
:100F00001A408282704721B1828942F40042828174
:100F100003E08289C2F30E028281704721B1828A86
:100F200042F40062828204E0828A4FF2FF731A4028
:100F300082827047828A4FF6FB731A408282828ACD
:100F40000A438282704721B1828A42F00202828281
:100F500004E0828A4FF6FD731A408282704702468F
:100F60000020B1F5007F00D100BF13880B4201D0F3
:100F7000012000E00020704701F40072B2F5007F0C
:100F800000D100BFCA430280704770B502460024FA
:100F9000002300250020A1F510666A3E00D100BFA5
:100FA000C1F3421501F01F03012606FA03F3012DD8
:100FB00002D19689334006E0022D02D1168A3340D1
:100FC00001E0968A33400C12012606FA04F41688D2
:100FD000344013B10CB1012000E0002070BD10B509
:100FE00000220023A1F510646A3C00D100BF0A1260
:100FF00001249440A3B2DC43048010BD00380140BA
:101000000044004000480040004C004000500040B8
:10101000704710B53648006840F001003449086058
:10102000084640683349084031494860084600682E
:10103000314908402E4908600846006820F48020A5
:1010400008600846406820F4FE0048604FF41F0026
:1010500088600020C862FFF7DBFF4FF0006027497F
:10106000086010BD30B50021002000220023204C74
:10107000646804F00C0121B1042906D0082925D1A7
:1010800007E01F4C1F4D2C6024E01D4C1D4D2C60B3
:1010900020E0174C646804F47010154C646804F484
:1010A0008032022404EB904022B9174C4443154D82
:1010B0002C600AE00E4CE46A04F00F04631C104C30
:1010C000B4FBF3F444430F4D2C6003E00C4C0D4D86
:1010D0002C6000BF00BF064C6468C4F303140B4DC2
:1010E000295D084C2468CC40064D2C6030BD0000C2
:1010F000001002400000FFF8FFFFF6FE08ED00E0E0
:1011000000127A008400002000093D0088000020C1
:10111000704770477047754600F028F8AE460500E6
:101120006946534620F00700854618B020B5FFF702
:101130006DF8BDE820404FF000064FF000074FF07B
:1011400000084FF0000B21F00701AC46ACE8C009E5
:10115000ACE8C009ACE8C009ACE8C0098D467047EE
:101160000446AFF300802046FFF73BF80048704785
:10117000C800002000487047CC000020014918201A
:10118000ABBEFEE726000200704710B5FFF7F2FF86
:101190004FF00001016010BDB811000800000020F0
:1011A000980000008C0100085012000898000020F0
:1011B00090060000A80100080A0D55534152542022
:1011C00048797065727465726D696E616C20496EE4
:1011D0007465727275707473204578616D706C659A
:1011E0003A2055534152542D487970657274657296
:1011F0006D696E616C20636F6D6D756E696361748E
:10120000696F6E207573696E6720496E74657272BE
:101210007570740A0D005D200000000000000000E1
:1012200000000000000000000000010203040102B1
:1012300003040607080902040608000000127A00E9
:101240000000000000000000010203040607080976
:04000005080001519D
:00000001FF
