:020000040800F2
:1000000090060020F1010008F9010008FB0100083A
:10001000FD010008FF0100080102000800000000C7
:1000200000000000000000000000000003020008C3
:10003000050200080000000007020008090200088D
:100040000B0200080B0200080B0200080B0200085C
:100050000B0200080B0200080B0200080B0200084C
:100060000B0200080B0200080B0200080B0200083C
:100070000B0200080B0200080B0200080B0200082C
:100080000B0200080B0200080B0200080B0200081C
:100090000B0200080B0200080B0200080B0200080C
:1000A0000B0200080B0200080B0200080B020008FC
:1000B0000B0200080B0200080B0200080B020008EC
:1000C0000B0200080B0200080B0200080B020008DC
:1000D0000B0200080B0200080B0200080B020008CC
:1000E0000B0200080B0200080B02000800000000D1
:1000F0000000000000000000000000000000000000
:1001000000000000000000000B0200080B020008C5
:100110000B0200080B0200080B0200080B0200088B
:100120000B0200080B0200080B0200080B0200087B
:100130000B0200080B0200080B0200080B0200086B
:100140000B0200080B0200080B0200080B0200085B
:1001500000F002F800F03CF80AA090E8000C82449D
:100160008344AAF10107DA4501D100F031F8AFF27A
:10017000090EBAE80F0013F0010F18BFFB1A43F085
:1001800001031847440A0000640A0000103A24BF23
:1001900078C878C1FAD8520724BF30C830C144BFEC
:1001A00004680C607047000000230024002500262E
:1001B000103A28BF78C1FBD8520728BF30C148BFCA
:1001C0000B6070471FB500F0F8FC1FBD10B510BDE7
:1001D00000F0B9FC1146FFF7F5FF00F02FF800F032
:1001E000D7FC03B4FFF7F2FF03BC00F0DFFC000014
:1001F0000948804709480047FEE7FEE7FEE7FEE7BB
:10020000FEE7FEE7FEE7FEE7FEE7FEE704480549F6
:10021000054A064B70470000450A000851010008D6
:100220009000002090060020900200209002002004
:1002300000BF0100A0F10100FBD170470121202087
:1002400000F059FB9C20174908801020C87003203B
:100250008870154800F08EF823E00421124800F061
:1002600034F91248FFF7E4FF08210F4800F02DF998
:100270000E48FFF7DDFF10210B4800F026F90B4870
:10028000FFF7D6FF8021084800F01FF90848FFF764
:10029000CFFF9C21044800F01AF96FF07F40FFF770
:1002A000C7FFDAE70000002000140140FFFF3F0015
:1002B000FFFF7F0010B50446CA48844208D10121DF
:1002C000042000F032FB0021042000F02EFB46E069
:1002D000C548844208D10121082000F026FB0021F6
:1002E000082000F022FB3AE0C048844208D10121F6
:1002F000102000F01AFB0021102000F016FB2EE069
:10030000BB48844208D10121202000F00EFB0021CF
:10031000202000F00AFB22E0B648844208D10121E7
:10032000402000F002FB0021402000F0FEFA16E021
:10033000B148844208D10121802000F0F6FA002162
:10034000802000F0F2FA0AE0AC48844207D1012193
:10035000801500F0EAFA0021A01500F0E6FA10BDC1
:1003600010B50121084600F0E0FA0021012000F05C
:10037000DCFA10BD2DE9F0410246002500260020E0
:1003800000230024002791F803C00CF00F0591F81A
:1003900003C01CF0100F03D091F802C04CEA050511
:1003A000B1F800C01CF0FF0F31D0146800202BE022
:1003B0004FF0010C0CFA00F3B1F800C00CEA030690
:1003C0009E4220D183004FF00F0C0CFA03F7BC4380
:1003D00005FA03FC4CEA040491F803C0BCF1280FB1
:1003E00006D14FF0010C0CFA00FCC2F814C00AE070
:1003F00091F803C0BCF1480F05D14FF0010C0CFA85
:1004000000FCC2F810C0401C0828D1D31460B1F819
:1004100000C0BCF1FF0F34DD546800202EE000F175
:10042000080C4FF0010808FA0CF3B1F800C00CEA10
:1004300003069E4221D183004FF00F0C0CFA03F704
:10044000BC4305FA03FC4CEA040491F803C0BCF178
:10045000280F05D100F1080C08FA0CF8C2F8148036
:1004600091F803C0BCF1480F07D100F1080C4FF020
:10047000010808FA0CF8C2F81080401C0828CED3F6
:100480005460BDE8F0814FF6FF7101800221817058
:100490000421C17070470246002093680B4201D0CE
:1004A000012000E0002070470146886880B2704754
:1004B00002460020D3680B4201D0012000E000205A
:1004C00070470146C86880B270470161704741615A
:1004D00070470AB1016100E041617047C160704737
:1004E0004FF480320A43826181618261826982694C
:1004F000704702460020424B18684FF68073184040
:1005000040EA021008433E4B186070473D49C861FD
:100510007047F0B50A46002300240021002500F0B2
:100520000046B6F1004F02D1354EF16901E0344E7C
:100530007168C0F3034583B200F44016B6F5401F5E
:1005400008D121F070612E4E766826F070662C4F2F
:100550007E6012E000F48016B6F5801F06D10326F7
:1005600006FA05F4A14341F0706106E0460D36013C
:1005700003FA06F6B14341F0706122B1460D36012F
:1005800003FA06F6314300F00046B6F1004F02D1FF
:100590001B4EF16101E01A4E7160F0BD30B50022D2
:1005A0008B071C0F0F2303FA04F2154B08338C1032
:1005B00053F824309343124C08348D1044F82530FE
:1005C00023468C1053F824308C07240F00FA04F4CF
:1005D00023430B4C08348D1044F8253030BD0A49B4
:1005E0000860704700080140000C01400010014005
:1005F0000014014000180140001C0140002001408F
:100600000000014000002042DC002042E348006876
:1006100040F00100E149086008464068E0490840B0
:10062000DE49486008460068DE490840DB4908604A
:100630000846006820F4802008600846406820F4DE
:10064000FE0048604FF41F0088600020C8627047B9
:10065000D249096821F48031D04A116011460968F5
:1006600021F480211160B0F5803F03D0B0F5802FD8
:100670000ED106E0C949096841F48031C74A1160CA
:1006800007E0C649096841F4A021C44A116000E0AE
:1006900000BF00BF704710B50146002200230020B4
:1006A0004A11012A02D1BD4C236806E0022A02D178
:1006B000BA4C236A01E0B94C636A01F01F020124BD
:1006C00094401C4201D0012000E0002010BD70B514
:1006D00000240025002600BF3120FFF7DCFF06467E
:1006E000641CB4F5A06F01D0002EF5D03120FFF7C7
:1006F000D2FF08B1012500E00025284670BD014663
:100700000020A64A106820F0F80040EAC1001060FE
:100710007047A54908607047024600209F4B586803
:1007200020F4741042EA010318439C4B5860704750
:100730009D490866704702460020984BD86A9B4B3B
:10074000184042EA01031843944BD86270470146AF
:100750000020924A506820F0030008435060704720
:100760008E48406800F00C007047014600208B4A1C
:10077000506820F0F00008435060704701460020A8
:10078000864A506820F4E060084350607047014694
:100790000020824A506820F4605040EAC100506056
:1007A000704729B17D4A527A02437C4B5A7206E067
:1007B0007A4A527AC343DBB21A40784B5A72704776
:1007C0007B490860704701460020744A506820F455
:1007D00040400843506070470021764A11706F4ACC
:1007E00082F82010012802D0042808D103E001215A
:1007F000704A117004E005216E4A117000E000BFDC
:1008000000BF70476C49086070476449096A01433A
:10081000624A11627047684944390860704770B590
:10082000002100230024002200255C4E766806F09B
:100830000C0121B1042905D0082921D105E05F4E22
:10084000066020E05D4E06601DE0544E766806F4BA
:100850007013524E766806F48034022606EB9343FA
:100860001CB9574E5E43066009E04C4EF66A06F02E
:100870000F06751C514EB6FBF5F65E43066002E0AE
:100880004E4E066000BF00BF444E766806F0F00191
:1008900009094C4E725C0668D64046603F4E766849
:1008A00006F4E061090A474E725C4668D6408660ED
:1008B0003A4E766806F46051C90A424E725C466848
:1008C000D640C660354E766806F44041890B3E4EF0
:1008D000725CC668B6FBF2F6066170BD29B12F4A9C
:1008E000526902432D4B5A6104E02C4A52698243FB
:1008F0002A4B5A61704729B1284A92690243274B13
:100900009A6104E0254A92698243244B9A617047B8
:1009100029B1224AD2690243204BDA6104E01F4A1E
:10092000D26982431D4BDA61704729B11B4AD268F4
:1009300002431A4BDA6004E0184AD2688243174B2C
:10094000DA60704729B1154A12690243134B1A61E4
:1009500004E0124A12698243104B1A61704716492B
:100960004039086070471049C86470470B49C87126
:1009700070470A48406A40F08070084948627047F2
:1009800001460020054A92680A4201D0012000E099
:100990000020704701498872704700000010024033
:1009A0000000FFF8FFFFF6FE00004242F0FFFEFFEE
:1009B000D8004242201002408004424200127A00D5
:1009C00000093D0004000020140000200021002048
:1009D000534A126842F48032514B1A6000BF504AA9
:1009E000126802F40030491C10B9B1F5A06FF6D1BD
:1009F0004B4A126812F4003F01D0012000E00020B1
:100A000001281AD1464A5268454B5A601A46526824
:100A10005A601A4652685A601A46526822F0030217
:100A20005A601A46526842F001025A6000BF3C4ABE
:100A3000526802F00C02042AF9D1704710B5FFF792
:100A4000C5FF10BD10B53648006840F001003449BC
:100A50000860084640683349084031494860084604
:100A60000068314908402E4908600846006820F4B3
:100A7000802008600846406820F4FE0048604FF47B
:100A80001F0088600020C862FFF7D8FF4FF00060A9
:100A90002649086010BD30B5002100200022002347
:100AA0001F4C646804F00C0121B1042906D0082908
:100AB00025D107E01E4C1F4D2C6024E01C4C1D4D21
:100AC0002C6020E0164C646804F47010144C6468C8
:100AD00004F48032022404EB904022B9164C4443C3
:100AE000144D2C600AE00E4CE46A04F00F04631C01
:100AF0000F4CB4FBF3F444430E4D2C6003E00C4C5C
:100B00000C4D2C6000BF00BF054C6468C4F3031497
:100B10000A4D295D074C2468CC40064D2C6030BD41
:100B2000001002400000FFF8FFFFF6FE08ED00E0B5
:100B300000127A001800002000093D001C0000206F
:100B4000704770477047754600F028F8AE460500BC
:100B50006946534620F00700854618B020B5FFF7D8
:100B600055FBBDE820404FF000064FF000074FF066
:100B700000084FF0000B21F00701AC46ACE8C009BB
:100B8000ACE8C009ACE8C009ACE8C0098D467047C4
:100B90000446AFF300802046FFF723FB0048704770
:100BA0002C00002000487047300000200149182028
:100BB000ABBEFEE726000200704710B5FFF7F2FF5C
:100BC0004FF00001016010BDE80B0008000000209C
:100BD0002C0000008C010008140C00082C000020E0
:100BE00064060000A80100080000000000000000EA
:100BF00001020304010203040607080902040608AF
:100C000000127A000000000000000000010203044E
:040C100006070809C2
:04000005080001519D
:00000001FF
